:020000040800F2
:100000000020002051020008DD010008DF01000887
:10001000E1010008E3010008E5010008000000001C
:10002000000000000000000000000000E7010008E0
:10003000E901000800000000EB010008ED010008E4
:100040009D0200089D0200089D0200089D02000814
:100050009D0200089D0200089D0200089D02000804
:100060009D0200089D0200089D0200089D020008F4
:100070009D0200089D0200089D0200089D020008E4
:100080009D0200089D020008000000009D0200087B
:100090009D0200089D0200089D0200089D020008C4
:1000A0009D0200089D0200089D0200089D020008B4
:1000B0009D020008000000009D02000800000000F2
:1000C0009D020008000000009D02000800000000E2
:1000D0000000000000000000000000000000000020
:1000E00000000000000000009D0200080000000069
:1000F0000000000000000000000000000000000000
:100100009D02000800000000000000000000000048
:1001100000000000000000000000000000000000DF
:1001200000000000000000000000000000000000CF
:1001300000000000000000000000000000000000BF
:100140000000000000000000000000009D02000808
:100150000348044B834202D0034B03B11847704756
:100160000800002008000020000000000548064BA1
:100170001B1AD90F01EBA301491002D0034B03B1A5
:100180001847704708000020080000200000000009
:1001900010B5064C237843B9FFF7DAFF044B13B1CF
:1001A0000448AFF300800123237010BD0800002035
:1001B000000000000806000808B5054B1BB1054902
:1001C0000548AFF30080BDE80840FFF7CFBF00BF90
:1001D000000000000C00002008060008FEE7FEE713
:1001E000FEE7FEE7FEE7FEE7FEE7FEE708B500F004
:1001F00025F808BD08B500F001F8FEE70C4B1B68B8
:100200000C4AA2FB03239B09013BB3F1807F0DD273
:100210004FF0E0225361084BF02183F823100021B6
:1002200091610720106183F823107047FEE700BF3B
:1002300000000020D34D621000ED00E0034B1B686E
:100240001BB1024A1368013B136070472400002071
:100250000C488546002103E00B4B5B5843500431AA
:100260000A480B4B42189A42F6D30A4A02E000238E
:1002700042F8043B084B9A42F9D300F067F8FFF7C5
:10028000B9FF7047002000202C0600080000002065
:100290000800002008000020C0010020FEE7000048
:1002A000274A136843F48033136000230133244A40
:1002B000126812F4003F03D14FF6FF729342F5D15A
:1002C0001F4B1B6813F4003F39D01D4B5A685A600E
:1002D0005A6842F400525A605A6842F480625A6086
:1002E0005A6822F0036222F470225A60DA6A22F01D
:1002F000404222F00F02DA625A6842F0006242F491
:10030000A0225A60DA6A42F00102DA62DA6ADA623C
:100310001A6842F080721A60094B1B6813F0007F64
:10032000FAD0074B5A6822F003025A605A6842F02A
:1003300002025A60024B5B6813F0080FFAD0704754
:100340000010024008B5FFF7ABFF08BD10B582B042
:100350006D4A936943F001039361A2F58832D36932
:1003600043F07013D361694BDB6903F00603062B7E
:1003700050D0664BDB6913F4005F4BD0634B64498C
:100380005960644A5A6099609A601A6942F0200282
:100390001A611A6942F040021A615C4BDB6813F083
:1003A000010FFAD1594B1A6922F020021A611A6919
:1003B00042F010021A61DB6913F0060F3CD1564B74
:1003C000A5221A80514AD169C1F3072101F0DF014A
:1003D000514B5980D169C1F307419980D169090E08
:1003E000D980116AC9B21981126AC2F307225A81EF
:1003F000464BDB6813F0010FFAD1444B1A6922F027
:1004000010021A611A6922F400721A611A6942F024
:1004100080021A613C4A136843F0010313603A4BAF
:100420001B6813F0020FFAD0374A536843F0800379
:100430005360002301930CE0344BDB6903F00603A7
:10044000022BBFD1344BBB221A80BBE7019B013387
:100450000193019B4F2BF9D92B4A536843F090032A
:1004600053600023019302E0019B01330193019B40
:100470004F2BF9D9244B5A6822F003025A601A68AC
:1004800022F0867222F480321A605968234A0A40A8
:100490005A605A6822F0084222F474125A605A686C
:1004A00022F440025A601A6B22F0804222F040028D
:1004B0001A63DA6A22F0404222F00F02DA621A6B03
:1004C00022F4817222F001021A631A6B22F4803244
:1004D0001A631A6B22F000421A635A6B22F001026F
:1004E0005A63D3F8C02022F48032C3F8C02000241D
:1004F0009C60C3F8CC40FFF725FF21464FF0006019
:1005000000F00EF802B010BD0010024000200240C2
:1005100023016745AB89EFCD00F8FF1F0C00FF08F2
:1005200021F0604121F07F010143024B9960BFF34C
:100530004F8F704700ED00E0704700BF704700BF6D
:10054000024B13B1024800F005B8704700000000EC
:1005500061050008002301461A46184600F014B849
:1005600038B5074D074C2C1BA41005D0013C55F89D
:10057000043D9847002CF9D1BDE8384000F04AB856
:100580002C060008280600082DE9F8431B4D0646F6
:10059000286898460F469146FFF7CEFF184B1C6817
:1005A0001CB3286865681F2D22DC4EB96B1C023510
:1005B000636044F82570FFF7C1FF0020BDE8F883B1
:1005C00004EB85010123C1F88890D4F88821AB4061
:1005D0001A43022EC4F88821C1F80881E6D1D4F864
:1005E0008C211A43C4F88C21E0E7064C1C60D8E744
:1005F000FFF7A4FF4FF0FF30E0E700BF040000204A
:100600002C00002030000020F8B500BFF8BC08BC6A
:100610009E467047F8B500BFF8BC08BC9E467047C0
:0806200041050008B9010008C2
:040628009101000834
:08062C0000F36F062800002016
:04000005080002519C
:00000001FF
